{
  "contractName": "PurseStaking",
  "abi": [
    {
      "anonymous": false,
      "inputs": [
        {
          "indexed": false,
          "internalType": "address",
          "name": "previousAdmin",
          "type": "address"
        },
        {
          "indexed": false,
          "internalType": "address",
          "name": "newAdmin",
          "type": "address"
        }
      ],
      "name": "AdminChanged",
      "type": "event"
    },
    {
      "anonymous": false,
      "inputs": [
        {
          "indexed": true,
          "internalType": "address",
          "name": "beacon",
          "type": "address"
        }
      ],
      "name": "BeaconUpgraded",
      "type": "event"
    },
    {
      "anonymous": false,
      "inputs": [
        {
          "indexed": true,
          "internalType": "address",
          "name": "_from",
          "type": "address"
        },
        {
          "indexed": false,
          "internalType": "uint256",
          "name": "_value",
          "type": "uint256"
        }
      ],
      "name": "Deposit",
      "type": "event"
    },
    {
      "anonymous": false,
      "inputs": [
        {
          "indexed": true,
          "internalType": "address",
          "name": "previousOwner",
          "type": "address"
        },
        {
          "indexed": true,
          "internalType": "address",
          "name": "newOwner",
          "type": "address"
        }
      ],
      "name": "OwnershipTransferred",
      "type": "event"
    },
    {
      "anonymous": false,
      "inputs": [
        {
          "indexed": false,
          "internalType": "address",
          "name": "account",
          "type": "address"
        }
      ],
      "name": "Paused",
      "type": "event"
    },
    {
      "anonymous": false,
      "inputs": [
        {
          "indexed": false,
          "internalType": "address",
          "name": "account",
          "type": "address"
        }
      ],
      "name": "Unpaused",
      "type": "event"
    },
    {
      "anonymous": false,
      "inputs": [
        {
          "indexed": true,
          "internalType": "address",
          "name": "implementation",
          "type": "address"
        }
      ],
      "name": "Upgraded",
      "type": "event"
    },
    {
      "anonymous": false,
      "inputs": [
        {
          "indexed": true,
          "internalType": "address",
          "name": "_from",
          "type": "address"
        },
        {
          "indexed": false,
          "internalType": "uint256",
          "name": "_value",
          "type": "uint256"
        }
      ],
      "name": "Withdraw",
      "type": "event"
    },
    {
      "inputs": [],
      "name": "name",
      "outputs": [
        {
          "internalType": "string",
          "name": "",
          "type": "string"
        }
      ],
      "stateMutability": "view",
      "type": "function",
      "constant": true
    },
    {
      "inputs": [],
      "name": "owner",
      "outputs": [
        {
          "internalType": "address",
          "name": "",
          "type": "address"
        }
      ],
      "stateMutability": "view",
      "type": "function",
      "constant": true
    },
    {
      "inputs": [],
      "name": "paused",
      "outputs": [
        {
          "internalType": "bool",
          "name": "",
          "type": "bool"
        }
      ],
      "stateMutability": "view",
      "type": "function",
      "constant": true
    },
    {
      "inputs": [],
      "name": "proxiableUUID",
      "outputs": [
        {
          "internalType": "bytes32",
          "name": "",
          "type": "bytes32"
        }
      ],
      "stateMutability": "view",
      "type": "function",
      "constant": true
    },
    {
      "inputs": [],
      "name": "purseToken",
      "outputs": [
        {
          "internalType": "contract IPurseToken",
          "name": "",
          "type": "address"
        }
      ],
      "stateMutability": "view",
      "type": "function",
      "constant": true
    },
    {
      "inputs": [],
      "name": "renounceOwnership",
      "outputs": [],
      "stateMutability": "nonpayable",
      "type": "function"
    },
    {
      "inputs": [
        {
          "internalType": "address",
          "name": "newOwner",
          "type": "address"
        }
      ],
      "name": "transferOwnership",
      "outputs": [],
      "stateMutability": "nonpayable",
      "type": "function"
    },
    {
      "inputs": [
        {
          "internalType": "address",
          "name": "newImplementation",
          "type": "address"
        }
      ],
      "name": "upgradeTo",
      "outputs": [],
      "stateMutability": "nonpayable",
      "type": "function"
    },
    {
      "inputs": [
        {
          "internalType": "address",
          "name": "newImplementation",
          "type": "address"
        },
        {
          "internalType": "bytes",
          "name": "data",
          "type": "bytes"
        }
      ],
      "name": "upgradeToAndCall",
      "outputs": [],
      "stateMutability": "payable",
      "type": "function",
      "payable": true
    },
    {
      "inputs": [
        {
          "internalType": "address",
          "name": "",
          "type": "address"
        }
      ],
      "name": "userInfo",
      "outputs": [
        {
          "internalType": "uint256",
          "name": "receiptToken",
          "type": "uint256"
        }
      ],
      "stateMutability": "view",
      "type": "function",
      "constant": true
    },
    {
      "inputs": [
        {
          "internalType": "contract IPurseToken",
          "name": "_purseToken",
          "type": "address"
        }
      ],
      "name": "initialize",
      "outputs": [],
      "stateMutability": "nonpayable",
      "type": "function"
    },
    {
      "inputs": [
        {
          "internalType": "uint256",
          "name": "purseAmount",
          "type": "uint256"
        }
      ],
      "name": "enter",
      "outputs": [
        {
          "internalType": "bool",
          "name": "success",
          "type": "bool"
        }
      ],
      "stateMutability": "nonpayable",
      "type": "function"
    },
    {
      "inputs": [
        {
          "internalType": "uint256",
          "name": "xPurseAmount",
          "type": "uint256"
        }
      ],
      "name": "leave",
      "outputs": [
        {
          "internalType": "bool",
          "name": "success",
          "type": "bool"
        }
      ],
      "stateMutability": "nonpayable",
      "type": "function"
    },
    {
      "inputs": [
        {
          "internalType": "address",
          "name": "purseOwner",
          "type": "address"
        }
      ],
      "name": "getTotalPurse",
      "outputs": [
        {
          "internalType": "uint256",
          "name": "",
          "type": "uint256"
        }
      ],
      "stateMutability": "view",
      "type": "function",
      "constant": true
    },
    {
      "inputs": [],
      "name": "totalReceiptSupply",
      "outputs": [
        {
          "internalType": "uint256",
          "name": "",
          "type": "uint256"
        }
      ],
      "stateMutability": "view",
      "type": "function",
      "constant": true
    },
    {
      "inputs": [
        {
          "internalType": "address",
          "name": "tokenAddress",
          "type": "address"
        },
        {
          "internalType": "uint256",
          "name": "amount",
          "type": "uint256"
        },
        {
          "internalType": "address",
          "name": "recipient",
          "type": "address"
        }
      ],
      "name": "recoverToken",
      "outputs": [],
      "stateMutability": "nonpayable",
      "type": "function"
    },
    {
      "inputs": [],
      "name": "pause",
      "outputs": [],
      "stateMutability": "nonpayable",
      "type": "function"
    },
    {
      "inputs": [],
      "name": "unpause",
      "outputs": [],
      "stateMutability": "nonpayable",
      "type": "function"
    }
  ],
  "bytecode": "0x60a06040523060805234801561001457600080fd5b50608051611d8361004c600039600081816103e50152818161042e0152818161054b0152818161058b015261061e0152611d836000f3fe6080604052600436106101095760003560e01c806367dfd4c911610095578063a59f3e0c11610064578063a59f3e0c146102ac578063c4d66de8146102cc578063c9fcbda5146102ec578063d04323c51461030c578063f2fde38b1461032c57600080fd5b806367dfd4c914610244578063715018a6146102645780638456cb59146102795780638da5cb5b1461028e57600080fd5b80633f4ba83a116100dc5780633f4ba83a146101ab5780634f1ef286146101c057806351bf16ef146101d357806352d1902d1461020b5780635c975abb1461022057600080fd5b806306fdde031461010e5780631959a002146101395780633659cfe6146101745780633b1deeda14610196575b600080fd5b34801561011a57600080fd5b5061012361034c565b6040516101309190611912565b60405180910390f35b34801561014557600080fd5b5061016661015436600461195a565b60fe6020526000908152604090205481565b604051908152602001610130565b34801561018057600080fd5b5061019461018f36600461195a565b6103da565b005b3480156101a257600080fd5b5060fd54610166565b3480156101b757600080fd5b506101946104c3565b6101946101ce36600461198d565b610540565b3480156101df57600080fd5b5060fc546101f3906001600160a01b031681565b6040516001600160a01b039091168152602001610130565b34801561021757600080fd5b50610166610611565b34801561022c57600080fd5b5060c95460ff165b6040519015158152602001610130565b34801561025057600080fd5b5061023461025f366004611a51565b6106c4565b34801561027057600080fd5b506101946108e7565b34801561028557600080fd5b5061019461091b565b34801561029a57600080fd5b506097546001600160a01b03166101f3565b3480156102b857600080fd5b506102346102c7366004611a51565b610970565b3480156102d857600080fd5b506101946102e736600461195a565b610c60565b3480156102f857600080fd5b5061016661030736600461195a565b610d81565b34801561031857600080fd5b50610194610327366004611a6a565b610e2e565b34801561033857600080fd5b5061019461034736600461195a565b610ebe565b60fb805461035990611aac565b80601f016020809104026020016040519081016040528092919081815260200182805461038590611aac565b80156103d25780601f106103a7576101008083540402835291602001916103d2565b820191906000526020600020905b8154815290600101906020018083116103b557829003601f168201915b505050505081565b306001600160a01b037f000000000000000000000000000000000000000000000000000000000000000016141561042c5760405162461bcd60e51b815260040161042390611ae7565b60405180910390fd5b7f00000000000000000000000000000000000000000000000000000000000000006001600160a01b0316610475600080516020611d07833981519152546001600160a01b031690565b6001600160a01b03161461049b5760405162461bcd60e51b815260040161042390611b33565b6104a481610f56565b604080516000808252602082019092526104c091839190610f80565b50565b60c95460ff1661050c5760405162461bcd60e51b815260206004820152601460248201527314185d5cd8589b194e881b9bdd081c185d5cd95960621b6044820152606401610423565b6097546001600160a01b031633146105365760405162461bcd60e51b815260040161042390611b7f565b61053e6110eb565b565b306001600160a01b037f00000000000000000000000000000000000000000000000000000000000000001614156105895760405162461bcd60e51b815260040161042390611ae7565b7f00000000000000000000000000000000000000000000000000000000000000006001600160a01b03166105d2600080516020611d07833981519152546001600160a01b031690565b6001600160a01b0316146105f85760405162461bcd60e51b815260040161042390611b33565b61060182610f56565b61060d82826001610f80565b5050565b6000306001600160a01b037f000000000000000000000000000000000000000000000000000000000000000016146106b15760405162461bcd60e51b815260206004820152603860248201527f555550535570677261646561626c653a206d757374206e6f742062652063616c60448201527f6c6564207468726f7567682064656c656761746563616c6c00000000000000006064820152608401610423565b50600080516020611d0783398151915290565b60006106d260c95460ff1690565b156106ef5760405162461bcd60e51b815260040161042390611bb4565b33600090815260fe602052604090205482111561074e5760405162461bcd60e51b815260206004820152601a60248201527f496e73756666696369656e74205265636569707420546f6b656e0000000000006044820152606401610423565b600061075960fd5490565b60fc546040516370a0823160e01b81523060048201529192506000916107e09184916107da916001600160a01b0316906370a0823190602401602060405180830381865afa1580156107af573d6000803e3d6000fd5b505050506040513d601f19601f820116820180604052508101906107d39190611bde565b879061117e565b90611191565b33600090815260fe6020526040812080549293508692909190610804908490611c0d565b925050819055508360fd600082825461081d9190611c0d565b909155506000905061082e8261119d565b60405181815290915033907f884edad9ce6fa2440d8a54cc123490eb96d2768479d49ff9c7366125a94243649060200160405180910390a260fc5460405163a9059cbb60e01b8152336004820152602481018390526001600160a01b039091169063a9059cbb906044016020604051808303816000875af11580156108b7573d6000803e3d6000fd5b505050506040513d601f19601f820116820180604052508101906108db9190611c24565b50600195945050505050565b6097546001600160a01b031633146109115760405162461bcd60e51b815260040161042390611b7f565b61053e6000611223565b60c95460ff161561093e5760405162461bcd60e51b815260040161042390611bb4565b6097546001600160a01b031633146109685760405162461bcd60e51b815260040161042390611b7f565b61053e611275565b600061097e60c95460ff1690565b1561099b5760405162461bcd60e51b815260040161042390611bb4565b60fc546040516370a0823160e01b815233600482015283916001600160a01b0316906370a0823190602401602060405180830381865afa1580156109e3573d6000803e3d6000fd5b505050506040513d601f19601f82011682018060405250810190610a079190611bde565b1015610a555760405162461bcd60e51b815260206004820152601860248201527f496e73756666696369656e7420507572736520546f6b656e00000000000000006044820152606401610423565b60fc546040516370a0823160e01b81523060048201526000916001600160a01b0316906370a0823190602401602060405180830381865afa158015610a9e573d6000803e3d6000fd5b505050506040513d601f19601f82011682018060405250810190610ac29190611bde565b90506000610acf60fd5490565b60fc546040516323b872dd60e01b8152336004820152306024820152604481018790529192506001600160a01b0316906323b872dd906064016020604051808303816000875af1158015610b27573d6000803e3d6000fd5b505050506040513d601f19601f82011682018060405250810190610b4b9190611c24565b50801580610b57575081155b15610bcd578015610b9e5760405162461bcd60e51b81526020600482015260116024820152700546f74616c2052656365697074203e203607c1b6044820152606401610423565b33600090815260fe6020526040812085905560fd8054869290610bc2908490611c46565b90915550610c219050565b6000610bdd836107da878561117e565b33600090815260fe6020526040812080549293508392909190610c01908490611c46565b925050819055508060fd6000828254610c1a9190611c46565b9091555050505b60405184815233907fe1fffcc4923d04b559f4d29a8bfc6cda04eb5b0d3c460751c2402c5c5cc9109c9060200160405180910390a25060019392505050565b600054610100900460ff16610c7b5760005460ff1615610c7f565b303b155b610ce25760405162461bcd60e51b815260206004820152602e60248201527f496e697469616c697a61626c653a20636f6e747261637420697320616c72656160448201526d191e481a5b9a5d1a585b1a5e995960921b6064820152608401610423565b600054610100900460ff16158015610d04576000805461ffff19166101011790555b60fc80546001600160a01b0319166001600160a01b03841617905560408051808201909152600d8082526c5075727365205374616b696e6760981b6020909201918252610d539160fb9161184d565b50610d5c6112cd565b610d646112fc565b610d6c61132b565b801561060d576000805461ff00191690555050565b600080610d8d60fd5490565b60fc546040516370a0823160e01b8152306004820152919250600091610e269184916107da916001600160a01b0316906370a0823190602401602060405180830381865afa158015610de3573d6000803e3d6000fd5b505050506040513d601f19601f82011682018060405250810190610e079190611bde565b6001600160a01b038816600090815260fe60205260409020549061117e565b949350505050565b6097546001600160a01b03163314610e585760405162461bcd60e51b815260040161042390611b7f565b6001600160a01b038116610ea55760405162461bcd60e51b815260206004820152601460248201527353656e6420746f205a65726f204164647265737360601b6044820152606401610423565b610eb96001600160a01b0384168284611352565b505050565b6097546001600160a01b03163314610ee85760405162461bcd60e51b815260040161042390611b7f565b6001600160a01b038116610f4d5760405162461bcd60e51b815260206004820152602660248201527f4f776e61626c653a206e6577206f776e657220697320746865207a65726f206160448201526564647265737360d01b6064820152608401610423565b6104c081611223565b6097546001600160a01b031633146104c05760405162461bcd60e51b815260040161042390611b7f565b7f4910fdfa16fed3260ed0e7147f7cc6da11a60208b5b9406d12a635614ffd91435460ff1615610fb357610eb9836113a4565b826001600160a01b03166352d1902d6040518163ffffffff1660e01b8152600401602060405180830381865afa92505050801561100d575060408051601f3d908101601f1916820190925261100a91810190611bde565b60015b6110705760405162461bcd60e51b815260206004820152602e60248201527f45524331393637557067726164653a206e657720696d706c656d656e7461746960448201526d6f6e206973206e6f74205555505360901b6064820152608401610423565b600080516020611d0783398151915281146110df5760405162461bcd60e51b815260206004820152602960248201527f45524331393637557067726164653a20756e737570706f727465642070726f786044820152681a58589b195555525160ba1b6064820152608401610423565b50610eb9838383611440565b60c95460ff166111345760405162461bcd60e51b815260206004820152601460248201527314185d5cd8589b194e881b9bdd081c185d5cd95960621b6044820152606401610423565b60c9805460ff191690557f5db9ee0a495bf2e6ff9c91a7834c1ba4fdd244a5e8aa4e537bd38aeae4b073aa335b6040516001600160a01b03909116815260200160405180910390a1565b600061118a8284611c5e565b9392505050565b600061118a8284611c7d565b60fc546040516370a0823160e01b815230600482015260009182916001600160a01b03909116906370a0823190602401602060405180830381865afa1580156111ea573d6000803e3d6000fd5b505050506040513d601f19601f8201168201806040525081019061120e9190611bde565b905080831161121d578261118a565b92915050565b609780546001600160a01b038381166001600160a01b0319831681179093556040519116919082907f8be0079c531659141344cd1fd0a4f28419497f9722a3daafe3b4186f6b6457e090600090a35050565b60c95460ff16156112985760405162461bcd60e51b815260040161042390611bb4565b60c9805460ff191660011790557f62e78cea01bee320cd4e420270b5ea74000d11b0c9f74754ebdbfc544b05a2586111613390565b600054610100900460ff166112f45760405162461bcd60e51b815260040161042390611c9f565b61053e61146b565b600054610100900460ff166113235760405162461bcd60e51b815260040161042390611c9f565b61053e61149e565b600054610100900460ff1661053e5760405162461bcd60e51b815260040161042390611c9f565b604080516001600160a01b038416602482015260448082018490528251808303909101815260649091019091526020810180516001600160e01b031663a9059cbb60e01b179052610eb99084906114ce565b6001600160a01b0381163b6114115760405162461bcd60e51b815260206004820152602d60248201527f455243313936373a206e657720696d706c656d656e746174696f6e206973206e60448201526c1bdd08184818dbdb9d1c9858dd609a1b6064820152608401610423565b600080516020611d0783398151915280546001600160a01b0319166001600160a01b0392909216919091179055565b611449836115a0565b6000825111806114565750805b15610eb95761146583836115e0565b50505050565b600054610100900460ff166114925760405162461bcd60e51b815260040161042390611c9f565b60c9805460ff19169055565b600054610100900460ff166114c55760405162461bcd60e51b815260040161042390611c9f565b61053e33611223565b6000611523826040518060400160405280602081526020017f5361666545524332303a206c6f772d6c6576656c2063616c6c206661696c6564815250856001600160a01b03166116d49092919063ffffffff16565b805190915015610eb957808060200190518101906115419190611c24565b610eb95760405162461bcd60e51b815260206004820152602a60248201527f5361666545524332303a204552433230206f7065726174696f6e20646964206e6044820152691bdd081cdd58d8d9595960b21b6064820152608401610423565b6115a9816113a4565b6040516001600160a01b038216907fbc7cd75a20ee27fd9adebab32041f755214dbc6bffa90cc0225b39da2e5c2d3b90600090a250565b60606001600160a01b0383163b6116485760405162461bcd60e51b815260206004820152602660248201527f416464726573733a2064656c65676174652063616c6c20746f206e6f6e2d636f6044820152651b9d1c9858dd60d21b6064820152608401610423565b600080846001600160a01b0316846040516116639190611cea565b600060405180830381855af49150503d806000811461169e576040519150601f19603f3d011682016040523d82523d6000602084013e6116a3565b606091505b50915091506116cb8282604051806060016040528060278152602001611d27602791396116e3565b95945050505050565b6060610e26848460008561171c565b606083156116f257508161118a565b8251156117025782518084602001fd5b8160405162461bcd60e51b81526004016104239190611912565b60608247101561177d5760405162461bcd60e51b815260206004820152602660248201527f416464726573733a20696e73756666696369656e742062616c616e636520666f6044820152651c8818d85b1b60d21b6064820152608401610423565b6001600160a01b0385163b6117d45760405162461bcd60e51b815260206004820152601d60248201527f416464726573733a2063616c6c20746f206e6f6e2d636f6e74726163740000006044820152606401610423565b600080866001600160a01b031685876040516117f09190611cea565b60006040518083038185875af1925050503d806000811461182d576040519150601f19603f3d011682016040523d82523d6000602084013e611832565b606091505b50915091506118428282866116e3565b979650505050505050565b82805461185990611aac565b90600052602060002090601f01602090048101928261187b57600085556118c1565b82601f1061189457805160ff19168380011785556118c1565b828001600101855582156118c1579182015b828111156118c15782518255916020019190600101906118a6565b506118cd9291506118d1565b5090565b5b808211156118cd57600081556001016118d2565b60005b838110156119015781810151838201526020016118e9565b838111156114655750506000910152565b60208152600082518060208401526119318160408501602087016118e6565b601f01601f19169190910160400192915050565b6001600160a01b03811681146104c057600080fd5b60006020828403121561196c57600080fd5b813561118a81611945565b634e487b7160e01b600052604160045260246000fd5b600080604083850312156119a057600080fd5b82356119ab81611945565b9150602083013567ffffffffffffffff808211156119c857600080fd5b818501915085601f8301126119dc57600080fd5b8135818111156119ee576119ee611977565b604051601f8201601f19908116603f01168101908382118183101715611a1657611a16611977565b81604052828152886020848701011115611a2f57600080fd5b8260208601602083013760006020848301015280955050505050509250929050565b600060208284031215611a6357600080fd5b5035919050565b600080600060608486031215611a7f57600080fd5b8335611a8a81611945565b9250602084013591506040840135611aa181611945565b809150509250925092565b600181811c90821680611ac057607f821691505b60208210811415611ae157634e487b7160e01b600052602260045260246000fd5b50919050565b6020808252602c908201527f46756e6374696f6e206d7573742062652063616c6c6564207468726f7567682060408201526b19195b1959d85d1958d85b1b60a21b606082015260800190565b6020808252602c908201527f46756e6374696f6e206d7573742062652063616c6c6564207468726f7567682060408201526b6163746976652070726f787960a01b606082015260800190565b6020808252818101527f4f776e61626c653a2063616c6c6572206973206e6f7420746865206f776e6572604082015260600190565b60208082526010908201526f14185d5cd8589b194e881c185d5cd95960821b604082015260600190565b600060208284031215611bf057600080fd5b5051919050565b634e487b7160e01b600052601160045260246000fd5b600082821015611c1f57611c1f611bf7565b500390565b600060208284031215611c3657600080fd5b8151801515811461118a57600080fd5b60008219821115611c5957611c59611bf7565b500190565b6000816000190483118215151615611c7857611c78611bf7565b500290565b600082611c9a57634e487b7160e01b600052601260045260246000fd5b500490565b6020808252602b908201527f496e697469616c697a61626c653a20636f6e7472616374206973206e6f74206960408201526a6e697469616c697a696e6760a81b606082015260800190565b60008251611cfc8184602087016118e6565b919091019291505056fe360894a13ba1a3210667c828492db98dca3e2076cc3735a920a3ca505d382bbc416464726573733a206c6f772d6c6576656c2064656c65676174652063616c6c206661696c6564a2646970667358221220a3bc5c2eb6945f079dc50d07580faeebaece1a2f29b2b4ad914c41590d7bd3e364736f6c634300080c0033",
  "immutableReferences": {
    "617": [
      {
        "length": 32,
        "start": 997
      },
      {
        "length": 32,
        "start": 1070
      },
      {
        "length": 32,
        "start": 1355
      },
      {
        "length": 32,
        "start": 1419
      },
      {
        "length": 32,
        "start": 1566
      }
    ]
  },
  "source": "// SPDX-License-Identifier: MIT\npragma solidity ^0.8.0;\n\nimport \"@openzeppelin/contracts/utils/math/SafeMath.sol\";\nimport \"@openzeppelin/contracts-upgradeable/token/ERC20/IERC20Upgradeable.sol\";\nimport \"@openzeppelin/contracts-upgradeable/token/ERC20/utils/SafeERC20Upgradeable.sol\";\nimport \"@openzeppelin/contracts-upgradeable/proxy/utils/Initializable.sol\";\nimport \"@openzeppelin/contracts-upgradeable/proxy/utils/UUPSUpgradeable.sol\";\nimport \"@openzeppelin/contracts-upgradeable/security/PausableUpgradeable.sol\";\nimport \"@openzeppelin/contracts-upgradeable/access/OwnableUpgradeable.sol\";\n\ninterface IPurseToken {\n\n    function transfer(address to, uint tokens) external returns (bool success);\n\n    function transferFrom(address from, address to, uint tokens) external returns (bool success);\n\n    function balanceOf(address tokenOwner) external view returns (uint balance);\n\n}\n\ncontract PurseStaking is Initializable, UUPSUpgradeable, OwnableUpgradeable, PausableUpgradeable {\n    using SafeMath for uint256;\n    using SafeERC20Upgradeable for IERC20Upgradeable;\n\n    string public name;\n    IPurseToken public purseToken;\n    uint256 private _totalReceiptSupply;\n       \n    struct UserInfo {\n        uint256 receiptToken;   \n    }\n\n    mapping (address => UserInfo) public userInfo;\n\n    function initialize(IPurseToken _purseToken) public initializer {\n        purseToken = _purseToken;\n        name = \"Purse Staking\";\n        __Pausable_init();\n        __Ownable_init();\n        __UUPSUpgradeable_init();\n    }\n\n    function _authorizeUpgrade(address) internal override onlyOwner {}\n\n    event Deposit(address indexed _from, uint256 _value);\n    event Withdraw(address indexed _from, uint256 _value);\n\n    function enter(uint256 purseAmount) external whenNotPaused returns (bool success) {\n        require(purseToken.balanceOf(msg.sender) >= purseAmount, \"Insufficient Purse Token\");\n        \n        uint256 totalPurse = purseToken.balanceOf(address(this));\n        uint256 totalXPurse = totalReceiptSupply();\n\n        purseToken.transferFrom(msg.sender, address(this), purseAmount);\n\n        if (totalXPurse <= 0 || totalPurse <= 0) {\n            require(totalXPurse <= 0, \"Total Receipt > 0\");\n            userInfo[msg.sender].receiptToken = purseAmount;\n            _totalReceiptSupply += purseAmount;\n        }\n        else {\n            uint256 newReceipt = purseAmount.mul(totalXPurse).div(totalPurse);\n            userInfo[msg.sender].receiptToken += newReceipt;\n            _totalReceiptSupply += newReceipt;\n        }\n        emit Deposit(msg.sender, purseAmount);\n        return true;\n    }\n\n    function leave(uint256 xPurseAmount) external whenNotPaused returns (bool success){  \n        require(userInfo[msg.sender].receiptToken >= xPurseAmount, \"Insufficient Receipt Token\");\n        \n        uint256 totalXPurse = totalReceiptSupply();\n        uint256 purseAmount = xPurseAmount.mul(purseToken.balanceOf(address(this))).div(totalXPurse);\n        \n        userInfo[msg.sender].receiptToken -= xPurseAmount;\n        _totalReceiptSupply -= xPurseAmount;\n\n        uint256 purseTransfer = safePurseTransfer(purseAmount);\n        emit Withdraw(msg.sender, purseTransfer);\n        purseToken.transfer(msg.sender, purseTransfer);\n        return true;\n    }\n\n    function safePurseTransfer(uint256 amount) internal view returns (uint256) {\n        uint256 purseBal = purseToken.balanceOf(address(this));\n        return amount > purseBal ? purseBal : amount;\n    }\n\n    function getTotalPurse(address purseOwner) external view returns (uint256){  \n        uint256 totalXPurse = totalReceiptSupply();\n        uint256 purseAmount = userInfo[purseOwner].receiptToken.mul(purseToken.balanceOf(address(this))).div(totalXPurse);\n        return purseAmount;\n    }\n\n    function totalReceiptSupply() public view returns (uint256) {\n        return _totalReceiptSupply;\n    }\n\n    function recoverToken(address tokenAddress, uint256 amount, address recipient) external onlyOwner {\n        require(recipient != address(0), \"Send to Zero Address\");\n        IERC20Upgradeable(tokenAddress).safeTransfer(recipient, amount);\n    }\n    \n    function pause() external whenNotPaused onlyOwner {\n        _pause();\n    }\n\n    function unpause() external whenPaused onlyOwner {\n        _unpause();\n    }\n}",
  "sourcePath": "/Users/yanping/Documents/PurseStaking/contracts/PurseStaking.sol",
  "compiler": {
    "name": "solc",
    "version": "0.8.12+commit.f00d7308.Emscripten.clang"
  },
  "schemaVersion": "3.4.5",
  "updatedAt": "2022-03-31T02:06:26.484Z",
  "networkType": "ethereum",
  "devdoc": {
    "kind": "dev",
    "methods": {
      "owner()": {
        "details": "Returns the address of the current owner."
      },
      "paused()": {
        "details": "Returns true if the contract is paused, and false otherwise."
      },
      "proxiableUUID()": {
        "details": "Implementation of the ERC1822 {proxiableUUID} function. This returns the storage slot used by the implementation. It is used to validate that the this implementation remains valid after an upgrade. IMPORTANT: A proxy pointing at a proxiable contract should not be considered proxiable itself, because this risks bricking a proxy that upgrades to it, by delegating to itself until out of gas. Thus it is critical that this function revert if invoked through a proxy. This is guaranteed by the `notDelegated` modifier."
      },
      "renounceOwnership()": {
        "details": "Leaves the contract without owner. It will not be possible to call `onlyOwner` functions anymore. Can only be called by the current owner. NOTE: Renouncing ownership will leave the contract without an owner, thereby removing any functionality that is only available to the owner."
      },
      "transferOwnership(address)": {
        "details": "Transfers ownership of the contract to a new account (`newOwner`). Can only be called by the current owner."
      },
      "upgradeTo(address)": {
        "details": "Upgrade the implementation of the proxy to `newImplementation`. Calls {_authorizeUpgrade}. Emits an {Upgraded} event."
      },
      "upgradeToAndCall(address,bytes)": {
        "details": "Upgrade the implementation of the proxy to `newImplementation`, and subsequently execute the function call encoded in `data`. Calls {_authorizeUpgrade}. Emits an {Upgraded} event."
      }
    },
    "version": 1
  },
  "userdoc": {
    "kind": "user",
    "methods": {},
    "version": 1
  }
}