{
  "contractName": "PurseStakingV2",
  "abi": [
    {
      "anonymous": false,
      "inputs": [
        {
          "indexed": false,
          "internalType": "address",
          "name": "previousAdmin",
          "type": "address"
        },
        {
          "indexed": false,
          "internalType": "address",
          "name": "newAdmin",
          "type": "address"
        }
      ],
      "name": "AdminChanged",
      "type": "event"
    },
    {
      "anonymous": false,
      "inputs": [
        {
          "indexed": true,
          "internalType": "address",
          "name": "beacon",
          "type": "address"
        }
      ],
      "name": "BeaconUpgraded",
      "type": "event"
    },
    {
      "anonymous": false,
      "inputs": [
        {
          "indexed": true,
          "internalType": "address",
          "name": "_from",
          "type": "address"
        },
        {
          "indexed": false,
          "internalType": "uint256",
          "name": "_value",
          "type": "uint256"
        }
      ],
      "name": "Deposit",
      "type": "event"
    },
    {
      "anonymous": false,
      "inputs": [
        {
          "indexed": true,
          "internalType": "address",
          "name": "previousOwner",
          "type": "address"
        },
        {
          "indexed": true,
          "internalType": "address",
          "name": "newOwner",
          "type": "address"
        }
      ],
      "name": "OwnershipTransferred",
      "type": "event"
    },
    {
      "anonymous": false,
      "inputs": [
        {
          "indexed": false,
          "internalType": "address",
          "name": "account",
          "type": "address"
        }
      ],
      "name": "Paused",
      "type": "event"
    },
    {
      "anonymous": false,
      "inputs": [
        {
          "indexed": false,
          "internalType": "address",
          "name": "account",
          "type": "address"
        }
      ],
      "name": "Unpaused",
      "type": "event"
    },
    {
      "anonymous": false,
      "inputs": [
        {
          "indexed": true,
          "internalType": "address",
          "name": "implementation",
          "type": "address"
        }
      ],
      "name": "Upgraded",
      "type": "event"
    },
    {
      "anonymous": false,
      "inputs": [
        {
          "indexed": true,
          "internalType": "address",
          "name": "_from",
          "type": "address"
        },
        {
          "indexed": false,
          "internalType": "uint256",
          "name": "_value",
          "type": "uint256"
        }
      ],
      "name": "WithdrawLockedStake",
      "type": "event"
    },
    {
      "anonymous": false,
      "inputs": [
        {
          "indexed": true,
          "internalType": "address",
          "name": "_from",
          "type": "address"
        },
        {
          "indexed": false,
          "internalType": "uint256",
          "name": "_value",
          "type": "uint256"
        }
      ],
      "name": "WithdrawUnlockedStake",
      "type": "event"
    },
    {
      "inputs": [],
      "name": "lockPeriod",
      "outputs": [
        {
          "internalType": "uint256",
          "name": "",
          "type": "uint256"
        }
      ],
      "stateMutability": "view",
      "type": "function",
      "constant": true
    },
    {
      "inputs": [],
      "name": "name",
      "outputs": [
        {
          "internalType": "string",
          "name": "",
          "type": "string"
        }
      ],
      "stateMutability": "view",
      "type": "function",
      "constant": true
    },
    {
      "inputs": [],
      "name": "owner",
      "outputs": [
        {
          "internalType": "address",
          "name": "",
          "type": "address"
        }
      ],
      "stateMutability": "view",
      "type": "function",
      "constant": true
    },
    {
      "inputs": [],
      "name": "paused",
      "outputs": [
        {
          "internalType": "bool",
          "name": "",
          "type": "bool"
        }
      ],
      "stateMutability": "view",
      "type": "function",
      "constant": true
    },
    {
      "inputs": [],
      "name": "proxiableUUID",
      "outputs": [
        {
          "internalType": "bytes32",
          "name": "",
          "type": "bytes32"
        }
      ],
      "stateMutability": "view",
      "type": "function",
      "constant": true
    },
    {
      "inputs": [],
      "name": "purseToken",
      "outputs": [
        {
          "internalType": "contract IPurseToken",
          "name": "",
          "type": "address"
        }
      ],
      "stateMutability": "view",
      "type": "function",
      "constant": true
    },
    {
      "inputs": [],
      "name": "renounceOwnership",
      "outputs": [],
      "stateMutability": "nonpayable",
      "type": "function"
    },
    {
      "inputs": [
        {
          "internalType": "address",
          "name": "newOwner",
          "type": "address"
        }
      ],
      "name": "transferOwnership",
      "outputs": [],
      "stateMutability": "nonpayable",
      "type": "function"
    },
    {
      "inputs": [
        {
          "internalType": "address",
          "name": "newImplementation",
          "type": "address"
        }
      ],
      "name": "upgradeTo",
      "outputs": [],
      "stateMutability": "nonpayable",
      "type": "function"
    },
    {
      "inputs": [
        {
          "internalType": "address",
          "name": "newImplementation",
          "type": "address"
        },
        {
          "internalType": "bytes",
          "name": "data",
          "type": "bytes"
        }
      ],
      "name": "upgradeToAndCall",
      "outputs": [],
      "stateMutability": "payable",
      "type": "function",
      "payable": true
    },
    {
      "inputs": [
        {
          "internalType": "address",
          "name": "",
          "type": "address"
        }
      ],
      "name": "userInfo",
      "outputs": [
        {
          "internalType": "uint256",
          "name": "receiptToken",
          "type": "uint256"
        },
        {
          "internalType": "uint256",
          "name": "newReceiptToken",
          "type": "uint256"
        },
        {
          "internalType": "uint256",
          "name": "withdrawReward",
          "type": "uint256"
        },
        {
          "internalType": "uint256",
          "name": "lockTime",
          "type": "uint256"
        }
      ],
      "stateMutability": "view",
      "type": "function",
      "constant": true
    },
    {
      "inputs": [
        {
          "internalType": "contract IPurseToken",
          "name": "_purseToken",
          "type": "address"
        }
      ],
      "name": "initialize",
      "outputs": [],
      "stateMutability": "nonpayable",
      "type": "function"
    },
    {
      "inputs": [
        {
          "internalType": "uint256",
          "name": "purseAmount",
          "type": "uint256"
        }
      ],
      "name": "enter",
      "outputs": [
        {
          "internalType": "bool",
          "name": "success",
          "type": "bool"
        }
      ],
      "stateMutability": "nonpayable",
      "type": "function"
    },
    {
      "inputs": [
        {
          "internalType": "uint256",
          "name": "xPurseAmount",
          "type": "uint256"
        }
      ],
      "name": "leave",
      "outputs": [
        {
          "internalType": "bool",
          "name": "success",
          "type": "bool"
        }
      ],
      "stateMutability": "nonpayable",
      "type": "function"
    },
    {
      "inputs": [
        {
          "internalType": "uint256",
          "name": "newLockPeriod",
          "type": "uint256"
        }
      ],
      "name": "updateLockPeriod",
      "outputs": [],
      "stateMutability": "nonpayable",
      "type": "function"
    },
    {
      "inputs": [],
      "name": "withdrawLockedAmount",
      "outputs": [
        {
          "internalType": "bool",
          "name": "success",
          "type": "bool"
        }
      ],
      "stateMutability": "nonpayable",
      "type": "function"
    },
    {
      "inputs": [
        {
          "internalType": "address",
          "name": "purseOwner",
          "type": "address"
        }
      ],
      "name": "getTotalPurse",
      "outputs": [
        {
          "internalType": "uint256",
          "name": "",
          "type": "uint256"
        }
      ],
      "stateMutability": "view",
      "type": "function",
      "constant": true
    },
    {
      "inputs": [
        {
          "internalType": "address",
          "name": "purseOwner",
          "type": "address"
        }
      ],
      "name": "userReceiptToken",
      "outputs": [
        {
          "internalType": "uint256",
          "name": "",
          "type": "uint256"
        }
      ],
      "stateMutability": "view",
      "type": "function",
      "constant": true
    },
    {
      "inputs": [],
      "name": "totalLockedAmount",
      "outputs": [
        {
          "internalType": "uint256",
          "name": "",
          "type": "uint256"
        }
      ],
      "stateMutability": "view",
      "type": "function",
      "constant": true
    },
    {
      "inputs": [],
      "name": "availablePurseSupply",
      "outputs": [
        {
          "internalType": "uint256",
          "name": "",
          "type": "uint256"
        }
      ],
      "stateMutability": "view",
      "type": "function",
      "constant": true
    },
    {
      "inputs": [],
      "name": "totalReceiptSupply",
      "outputs": [
        {
          "internalType": "uint256",
          "name": "",
          "type": "uint256"
        }
      ],
      "stateMutability": "view",
      "type": "function",
      "constant": true
    },
    {
      "inputs": [
        {
          "internalType": "address",
          "name": "tokenAddress",
          "type": "address"
        },
        {
          "internalType": "uint256",
          "name": "amount",
          "type": "uint256"
        },
        {
          "internalType": "address",
          "name": "recipient",
          "type": "address"
        }
      ],
      "name": "recoverToken",
      "outputs": [],
      "stateMutability": "nonpayable",
      "type": "function"
    },
    {
      "inputs": [],
      "name": "pause",
      "outputs": [],
      "stateMutability": "nonpayable",
      "type": "function"
    },
    {
      "inputs": [],
      "name": "unpause",
      "outputs": [],
      "stateMutability": "nonpayable",
      "type": "function"
    }
  ],
  "bytecode": "0x60a06040523060805234801561001457600080fd5b5060805161218a61004c60003960008181610518015281816105610152818161067e015281816106be0152610751015261218a6000f3fe60806040526004361061014b5760003560e01c806367dfd4c9116100b6578063c4d66de81161006f578063c4d66de8146103a7578063c9c589b7146103c7578063c9fcbda5146103dc578063d04323c5146103fc578063d726f3191461041c578063f2fde38b1461043157600080fd5b806367dfd4c9146102ff578063715018a61461031f5780638456cb59146103345780638da5cb5b1461034957806391db7b0d14610367578063a59f3e0c1461038757600080fd5b80633f4ba83a116101085780633f4ba83a1461024f5780633fd8b02f146102645780634f1ef2861461027b57806351bf16ef1461028e57806352d1902d146102c65780635c975abb146102db57600080fd5b806305a9f2741461015057806306fdde03146101745780631959a00214610196578063325bf87d146101f85780633659cfe6146102185780633b1deeda1461023a575b600080fd5b34801561015c57600080fd5b5060ff545b6040519081526020015b60405180910390f35b34801561018057600080fd5b50610189610451565b60405161016b9190611d19565b3480156101a257600080fd5b506101d86101b1366004611d61565b60fe6020526000908152604090208054600182015460028301546003909301549192909184565b60408051948552602085019390935291830152606082015260800161016b565b34801561020457600080fd5b50610161610213366004611d61565b6104df565b34801561022457600080fd5b50610238610233366004611d61565b61050d565b005b34801561024657600080fd5b5060fd54610161565b34801561025b57600080fd5b506102386105f6565b34801561027057600080fd5b506101616101005481565b610238610289366004611d94565b610673565b34801561029a57600080fd5b5060fc546102ae906001600160a01b031681565b6040516001600160a01b03909116815260200161016b565b3480156102d257600080fd5b50610161610744565b3480156102e757600080fd5b5060c95460ff165b604051901515815260200161016b565b34801561030b57600080fd5b506102ef61031a366004611e58565b6107f7565b34801561032b57600080fd5b50610238610aa4565b34801561034057600080fd5b50610238610ad8565b34801561035557600080fd5b506097546001600160a01b03166102ae565b34801561037357600080fd5b50610238610382366004611e58565b610b2d565b34801561039357600080fd5b506102ef6103a2366004611e58565b610bb0565b3480156103b357600080fd5b506102386103c2366004611d61565b610e43565b3480156103d357600080fd5b50610161610f64565b3480156103e857600080fd5b506101616103f7366004611d61565b610fe9565b34801561040857600080fd5b50610238610417366004611e71565b61102a565b34801561042857600080fd5b506102ef6110ba565b34801561043d57600080fd5b5061023861044c366004611d61565b6112c4565b60fb805461045e90611eb3565b80601f016020809104026020016040519081016040528092919081815260200182805461048a90611eb3565b80156104d75780601f106104ac576101008083540402835291602001916104d7565b820191906000526020600020905b8154815290600101906020018083116104ba57829003601f168201915b505050505081565b6001600160a01b038116600090815260fe60205260408120600181015490546105079161135c565b92915050565b306001600160a01b037f000000000000000000000000000000000000000000000000000000000000000016141561055f5760405162461bcd60e51b815260040161055690611eee565b60405180910390fd5b7f00000000000000000000000000000000000000000000000000000000000000006001600160a01b03166105a860008051602061210e833981519152546001600160a01b031690565b6001600160a01b0316146105ce5760405162461bcd60e51b815260040161055690611f3a565b6105d78161136f565b604080516000808252602082019092526105f391839190611399565b50565b60c95460ff1661063f5760405162461bcd60e51b815260206004820152601460248201527314185d5cd8589b194e881b9bdd081c185d5cd95960621b6044820152606401610556565b6097546001600160a01b031633146106695760405162461bcd60e51b815260040161055690611f86565b610671611504565b565b306001600160a01b037f00000000000000000000000000000000000000000000000000000000000000001614156106bc5760405162461bcd60e51b815260040161055690611eee565b7f00000000000000000000000000000000000000000000000000000000000000006001600160a01b031661070560008051602061210e833981519152546001600160a01b031690565b6001600160a01b03161461072b5760405162461bcd60e51b815260040161055690611f3a565b6107348261136f565b61074082826001611399565b5050565b6000306001600160a01b037f000000000000000000000000000000000000000000000000000000000000000016146107e45760405162461bcd60e51b815260206004820152603860248201527f555550535570677261646561626c653a206d757374206e6f742062652063616c60448201527f6c6564207468726f7567682064656c656761746563616c6c00000000000000006064820152608401610556565b5060008051602061210e83398151915290565b600061080560c95460ff1690565b156108225760405162461bcd60e51b815260040161055690611fbb565b33600081815260fe602052604081209161083b906104df565b9050600061084860fd5490565b90506000610854610f64565b9050600080878510156108a95760405162461bcd60e51b815260206004820152601a60248201527f496e73756666696369656e74205265636569707420546f6b656e0000000000006044820152606401610556565b855461092e5760006108c887600301544261159790919063ffffffff16565b90506101005481101580156108e05750600387015415155b156108ef576108ed6110ba565b505b610903856108fd8b876115a3565b906115af565b9150888760010160008282546109199190611ffb565b909155506109289050826115bb565b50610a7f565b855488111561099a578554600090610947908a90611597565b9050610957856108fd83876115a3565b875490925061096c9086906108fd90876115a3565b9250808760010160008282546109829190611ffb565b909155505060008755610994826115bb565b506109c4565b6109a8846108fd8a866115a3565b9150878660000160008282546109be9190611ffb565b90915550505b60006109cf83611608565b60405181815290915033907fc6fa6dcb28a3a9de9c452054aa9845fa2bf32414c2e2060da24675e75c4813269060200160405180910390a260fc5460405163a9059cbb60e01b8152336004820152602481018390526001600160a01b039091169063a9059cbb906044016020604051808303816000875af1158015610a58573d6000803e3d6000fd5b505050506040513d601f19601f82011682018060405250810190610a7c9190612012565b50505b8760fd6000828254610a919190611ffb565b9091555060019998505050505050505050565b6097546001600160a01b03163314610ace5760405162461bcd60e51b815260040161055690611f86565b6106716000611622565b60c95460ff1615610afb5760405162461bcd60e51b815260040161055690611fbb565b6097546001600160a01b03163314610b255760405162461bcd60e51b815260040161055690611f86565b610671611674565b6097546001600160a01b03163314610b575760405162461bcd60e51b815260040161055690611f86565b61010054811415610baa5760405162461bcd60e51b815260206004820152601c60248201527f53616d652061732050726576696f7573204c6f636b20506572696f64000000006044820152606401610556565b61010055565b6000610bbe60c95460ff1690565b15610bdb5760405162461bcd60e51b815260040161055690611fbb565b60fc546040516370a0823160e01b815233600482015283916001600160a01b0316906370a0823190602401602060405180830381865afa158015610c23573d6000803e3d6000fd5b505050506040513d601f19601f82011682018060405250810190610c479190612034565b1015610c955760405162461bcd60e51b815260206004820152601860248201527f496e73756666696369656e7420507572736520546f6b656e00000000000000006044820152606401610556565b6000610ca060fd5490565b90506000610cac610f64565b60fc546040516323b872dd60e01b8152336004820152306024820152604481018790529192506001600160a01b0316906323b872dd906064016020604051808303816000875af1158015610d04573d6000803e3d6000fd5b505050506040513d601f19601f82011682018060405250810190610d289190612012565b50811580610d34575080155b15610dad578115610d7b5760405162461bcd60e51b81526020600482015260116024820152700546f74616c2052656365697074203e203607c1b6044820152606401610556565b33600090815260fe6020526040812060010185905560fd8054869290610da290849061204d565b90915550610e049050565b6000610dbd826108fd87866115a3565b33600090815260fe6020526040812060010180549293508392909190610de490849061204d565b925050819055508060fd6000828254610dfd919061204d565b9091555050505b60405184815233907fe1fffcc4923d04b559f4d29a8bfc6cda04eb5b0d3c460751c2402c5c5cc9109c9060200160405180910390a25060019392505050565b600054610100900460ff16610e5e5760005460ff1615610e62565b303b155b610ec55760405162461bcd60e51b815260206004820152602e60248201527f496e697469616c697a61626c653a20636f6e747261637420697320616c72656160448201526d191e481a5b9a5d1a585b1a5e995960921b6064820152608401610556565b600054610100900460ff16158015610ee7576000805461ffff19166101011790555b60fc80546001600160a01b0319166001600160a01b03841617905560408051808201909152600d8082526c5075727365205374616b696e6760981b6020909201918252610f369160fb91611c54565b50610f3f6116cc565b610f476116fb565b610f4f61172a565b8015610740576000805461ff00191690555050565b6000610fe4610f7260ff5490565b60fc546040516370a0823160e01b81523060048201526001600160a01b03909116906370a0823190602401602060405180830381865afa158015610fba573d6000803e3d6000fd5b505050506040513d601f19601f82011682018060405250810190610fde9190612034565b90611597565b905090565b600080610ff560fd5490565b90506000611001610f64565b9050600061100e856104df565b90506000611020846108fd84866115a3565b9695505050505050565b6097546001600160a01b031633146110545760405162461bcd60e51b815260040161055690611f86565b6001600160a01b0381166110a15760405162461bcd60e51b815260206004820152601460248201527353656e6420746f205a65726f204164647265737360601b6044820152606401610556565b6110b56001600160a01b0384168284611751565b505050565b60006110c860c95460ff1690565b156110e55760405162461bcd60e51b815260040161055690611fbb565b33600090815260fe602052604081206003810154909190611107904290611597565b9050600082600201541161115d5760405162461bcd60e51b815260206004820152601e60248201527f496e73756666696369656e74205769746864726177616c20416d6f756e7400006044820152606401610556565b6101005481101580156111735750600382015415155b6111d55760405162461bcd60e51b815260206004820152602d60248201527f4c6f636b2054696d65203c204c6f636b20506572696f6420616e642f6f72204c60448201526c06f636b2054696d65203d3d203609c1b6064820152608401610556565b60006111e48360020154611608565b9050826002015460ff60008282546111fc9190611ffb565b9091555050600060028401819055600384015560405181815233907fcc5ef510e1a0d9726fed6d15a4e359b75892b062b6f6756efb5c955e0c3138179060200160405180910390a260fc5460405163a9059cbb60e01b8152336004820152602481018390526001600160a01b039091169063a9059cbb906044016020604051808303816000875af1158015611295573d6000803e3d6000fd5b505050506040513d601f19601f820116820180604052508101906112b99190612012565b506001935050505090565b6097546001600160a01b031633146112ee5760405162461bcd60e51b815260040161055690611f86565b6001600160a01b0381166113535760405162461bcd60e51b815260206004820152602660248201527f4f776e61626c653a206e6577206f776e657220697320746865207a65726f206160448201526564647265737360d01b6064820152608401610556565b6105f381611622565b6000611368828461204d565b9392505050565b6097546001600160a01b031633146105f35760405162461bcd60e51b815260040161055690611f86565b7f4910fdfa16fed3260ed0e7147f7cc6da11a60208b5b9406d12a635614ffd91435460ff16156113cc576110b5836117a3565b826001600160a01b03166352d1902d6040518163ffffffff1660e01b8152600401602060405180830381865afa925050508015611426575060408051601f3d908101601f1916820190925261142391810190612034565b60015b6114895760405162461bcd60e51b815260206004820152602e60248201527f45524331393637557067726164653a206e657720696d706c656d656e7461746960448201526d6f6e206973206e6f74205555505360901b6064820152608401610556565b60008051602061210e83398151915281146114f85760405162461bcd60e51b815260206004820152602960248201527f45524331393637557067726164653a20756e737570706f727465642070726f786044820152681a58589b195555525160ba1b6064820152608401610556565b506110b583838361183f565b60c95460ff1661154d5760405162461bcd60e51b815260206004820152601460248201527314185d5cd8589b194e881b9bdd081c185d5cd95960621b6044820152606401610556565b60c9805460ff191690557f5db9ee0a495bf2e6ff9c91a7834c1ba4fdd244a5e8aa4e537bd38aeae4b073aa335b6040516001600160a01b03909116815260200160405180910390a1565b60006113688284611ffb565b60006113688284612065565b60006113688284612084565b33600090815260fe60205260408120600281018054919284926115df90849061204d565b909155505042600382015560ff80548391906000906115ff90849061204d565b90915550505050565b600080611613610f64565b90508083116105075782611368565b609780546001600160a01b038381166001600160a01b0319831681179093556040519116919082907f8be0079c531659141344cd1fd0a4f28419497f9722a3daafe3b4186f6b6457e090600090a35050565b60c95460ff16156116975760405162461bcd60e51b815260040161055690611fbb565b60c9805460ff191660011790557f62e78cea01bee320cd4e420270b5ea74000d11b0c9f74754ebdbfc544b05a25861157a3390565b600054610100900460ff166116f35760405162461bcd60e51b8152600401610556906120a6565b61067161186a565b600054610100900460ff166117225760405162461bcd60e51b8152600401610556906120a6565b61067161189d565b600054610100900460ff166106715760405162461bcd60e51b8152600401610556906120a6565b604080516001600160a01b038416602482015260448082018490528251808303909101815260649091019091526020810180516001600160e01b031663a9059cbb60e01b1790526110b59084906118cd565b6001600160a01b0381163b6118105760405162461bcd60e51b815260206004820152602d60248201527f455243313936373a206e657720696d706c656d656e746174696f6e206973206e60448201526c1bdd08184818dbdb9d1c9858dd609a1b6064820152608401610556565b60008051602061210e83398151915280546001600160a01b0319166001600160a01b0392909216919091179055565b6118488361199f565b6000825111806118555750805b156110b55761186483836119df565b50505050565b600054610100900460ff166118915760405162461bcd60e51b8152600401610556906120a6565b60c9805460ff19169055565b600054610100900460ff166118c45760405162461bcd60e51b8152600401610556906120a6565b61067133611622565b6000611922826040518060400160405280602081526020017f5361666545524332303a206c6f772d6c6576656c2063616c6c206661696c6564815250856001600160a01b0316611ad39092919063ffffffff16565b8051909150156110b557808060200190518101906119409190612012565b6110b55760405162461bcd60e51b815260206004820152602a60248201527f5361666545524332303a204552433230206f7065726174696f6e20646964206e6044820152691bdd081cdd58d8d9595960b21b6064820152608401610556565b6119a8816117a3565b6040516001600160a01b038216907fbc7cd75a20ee27fd9adebab32041f755214dbc6bffa90cc0225b39da2e5c2d3b90600090a250565b60606001600160a01b0383163b611a475760405162461bcd60e51b815260206004820152602660248201527f416464726573733a2064656c65676174652063616c6c20746f206e6f6e2d636f6044820152651b9d1c9858dd60d21b6064820152608401610556565b600080846001600160a01b031684604051611a6291906120f1565b600060405180830381855af49150503d8060008114611a9d576040519150601f19603f3d011682016040523d82523d6000602084013e611aa2565b606091505b5091509150611aca828260405180606001604052806027815260200161212e60279139611aea565b95945050505050565b6060611ae28484600085611b23565b949350505050565b60608315611af9575081611368565b825115611b095782518084602001fd5b8160405162461bcd60e51b81526004016105569190611d19565b606082471015611b845760405162461bcd60e51b815260206004820152602660248201527f416464726573733a20696e73756666696369656e742062616c616e636520666f6044820152651c8818d85b1b60d21b6064820152608401610556565b6001600160a01b0385163b611bdb5760405162461bcd60e51b815260206004820152601d60248201527f416464726573733a2063616c6c20746f206e6f6e2d636f6e74726163740000006044820152606401610556565b600080866001600160a01b03168587604051611bf791906120f1565b60006040518083038185875af1925050503d8060008114611c34576040519150601f19603f3d011682016040523d82523d6000602084013e611c39565b606091505b5091509150611c49828286611aea565b979650505050505050565b828054611c6090611eb3565b90600052602060002090601f016020900481019282611c825760008555611cc8565b82601f10611c9b57805160ff1916838001178555611cc8565b82800160010185558215611cc8579182015b82811115611cc8578251825591602001919060010190611cad565b50611cd4929150611cd8565b5090565b5b80821115611cd45760008155600101611cd9565b60005b83811015611d08578181015183820152602001611cf0565b838111156118645750506000910152565b6020815260008251806020840152611d38816040850160208701611ced565b601f01601f19169190910160400192915050565b6001600160a01b03811681146105f357600080fd5b600060208284031215611d7357600080fd5b813561136881611d4c565b634e487b7160e01b600052604160045260246000fd5b60008060408385031215611da757600080fd5b8235611db281611d4c565b9150602083013567ffffffffffffffff80821115611dcf57600080fd5b818501915085601f830112611de357600080fd5b813581811115611df557611df5611d7e565b604051601f8201601f19908116603f01168101908382118183101715611e1d57611e1d611d7e565b81604052828152886020848701011115611e3657600080fd5b8260208601602083013760006020848301015280955050505050509250929050565b600060208284031215611e6a57600080fd5b5035919050565b600080600060608486031215611e8657600080fd5b8335611e9181611d4c565b9250602084013591506040840135611ea881611d4c565b809150509250925092565b600181811c90821680611ec757607f821691505b60208210811415611ee857634e487b7160e01b600052602260045260246000fd5b50919050565b6020808252602c908201527f46756e6374696f6e206d7573742062652063616c6c6564207468726f7567682060408201526b19195b1959d85d1958d85b1b60a21b606082015260800190565b6020808252602c908201527f46756e6374696f6e206d7573742062652063616c6c6564207468726f7567682060408201526b6163746976652070726f787960a01b606082015260800190565b6020808252818101527f4f776e61626c653a2063616c6c6572206973206e6f7420746865206f776e6572604082015260600190565b60208082526010908201526f14185d5cd8589b194e881c185d5cd95960821b604082015260600190565b634e487b7160e01b600052601160045260246000fd5b60008282101561200d5761200d611fe5565b500390565b60006020828403121561202457600080fd5b8151801515811461136857600080fd5b60006020828403121561204657600080fd5b5051919050565b6000821982111561206057612060611fe5565b500190565b600081600019048311821515161561207f5761207f611fe5565b500290565b6000826120a157634e487b7160e01b600052601260045260246000fd5b500490565b6020808252602b908201527f496e697469616c697a61626c653a20636f6e7472616374206973206e6f74206960408201526a6e697469616c697a696e6760a81b606082015260800190565b60008251612103818460208701611ced565b919091019291505056fe360894a13ba1a3210667c828492db98dca3e2076cc3735a920a3ca505d382bbc416464726573733a206c6f772d6c6576656c2064656c65676174652063616c6c206661696c6564a26469706673582212202aa54849acfb2b293ad4341fb420b6973ba0b3f4958aa27fc2bb233e9aa7dbef64736f6c634300080c0033",
  "immutableReferences": {
    "617": [
      {
        "length": 32,
        "start": 1304
      },
      {
        "length": 32,
        "start": 1377
      },
      {
        "length": 32,
        "start": 1662
      },
      {
        "length": 32,
        "start": 1726
      },
      {
        "length": 32,
        "start": 1873
      }
    ]
  },
  "source": "// SPDX-License-Identifier: MIT\npragma solidity ^0.8.0;\n\nimport \"@openzeppelin/contracts/utils/math/SafeMath.sol\";\nimport \"@openzeppelin/contracts-upgradeable/token/ERC20/IERC20Upgradeable.sol\";\nimport \"@openzeppelin/contracts-upgradeable/token/ERC20/utils/SafeERC20Upgradeable.sol\";\nimport \"@openzeppelin/contracts-upgradeable/proxy/utils/Initializable.sol\";\nimport \"@openzeppelin/contracts-upgradeable/proxy/utils/UUPSUpgradeable.sol\";\nimport \"@openzeppelin/contracts-upgradeable/security/PausableUpgradeable.sol\";\nimport \"@openzeppelin/contracts-upgradeable/access/OwnableUpgradeable.sol\";\n\ninterface IPurseToken {\n\n    function transfer(address to, uint tokens) external returns (bool success);\n\n    function transferFrom(address from, address to, uint tokens) external returns (bool success);\n\n    function balanceOf(address tokenOwner) external view returns (uint balance);\n\n}\n\ncontract PurseStakingV2 is Initializable, UUPSUpgradeable, OwnableUpgradeable, PausableUpgradeable {\n    using SafeMath for uint256;\n    using SafeERC20Upgradeable for IERC20Upgradeable;\n\n    string public name;\n    IPurseToken public purseToken;\n    uint256 private _totalReceiptSupply;\n       \n    struct UserInfo {\n        uint256 receiptToken;\n        uint256 newReceiptToken;\n        uint256 withdrawReward;\n        uint256 lockTime;\n    }\n\n    mapping (address => UserInfo) public userInfo;\n\n    uint256 private _totalLockedAmount;\n    uint256 public lockPeriod;\n\n    function initialize(IPurseToken _purseToken) public initializer {\n        purseToken = _purseToken;\n        name = \"Purse Staking\";\n        __Pausable_init();\n        __Ownable_init();\n        __UUPSUpgradeable_init();\n    }\n\n    function _authorizeUpgrade(address) internal override onlyOwner {}\n\n    event Deposit(address indexed _from, uint256 _value);\n    event WithdrawUnlockedStake(address indexed _from, uint256 _value);\n    event WithdrawLockedStake(address indexed _from, uint256 _value);\n\n    function enter(uint256 purseAmount) external whenNotPaused returns (bool success) {\n        require(purseToken.balanceOf(msg.sender) >= purseAmount, \"Insufficient Purse Token\");\n        \n        uint256 totalXPurse = totalReceiptSupply();\n        uint256 totalPurse = availablePurseSupply();\n\n        purseToken.transferFrom(msg.sender, address(this), purseAmount);\n\n        if (totalXPurse <= 0 || totalPurse <= 0) {\n            require(totalXPurse <= 0, \"Total Receipt > 0\");\n            userInfo[msg.sender].newReceiptToken = purseAmount;\n            _totalReceiptSupply += purseAmount;\n        }\n        else {\n            uint256 newReceipt = purseAmount.mul(totalXPurse).div(totalPurse);\n            userInfo[msg.sender].newReceiptToken += newReceipt;\n            _totalReceiptSupply += newReceipt;\n        }\n        emit Deposit(msg.sender, purseAmount);\n        return true;\n    }\n\n    function leave(uint256 xPurseAmount) external whenNotPaused returns (bool success){\n        UserInfo storage user = userInfo[msg.sender];\n        uint256 userReceipt = userReceiptToken(msg.sender);\n        uint256 totalXPurse = totalReceiptSupply();\n        uint256 totalPurse = availablePurseSupply();\n        uint256 purseAmount;\n        uint256 purseReward;\n        require(userReceipt >= xPurseAmount, \"Insufficient Receipt Token\");\n\n        if(user.receiptToken <= 0) {\n            uint256 lockDuration = block.timestamp.sub(user.lockTime); \n            if (lockDuration >= lockPeriod && user.lockTime != 0) {\n                withdrawLockedAmount();\n            }\n            purseReward = xPurseAmount.mul(totalPurse).div(totalXPurse);\n            user.newReceiptToken -= xPurseAmount;\n            handleReceipt(purseReward);\n        } else {\n            if(xPurseAmount > user.receiptToken) {\n                uint256 newReceipt = xPurseAmount.sub(user.receiptToken);\n                purseReward = newReceipt.mul(totalPurse).div(totalXPurse);\n                purseAmount = user.receiptToken.mul(totalPurse).div(totalXPurse);\n                user.newReceiptToken -= newReceipt;\n                user.receiptToken = 0;\n                handleReceipt(purseReward);\n            } else {\n                purseAmount = xPurseAmount.mul(totalPurse).div(totalXPurse);\n                user.receiptToken -= xPurseAmount;\n            }\n            uint256 purseTransfer = safePurseTransfer(purseAmount);\n            emit WithdrawUnlockedStake(msg.sender, purseTransfer);\n            purseToken.transfer(msg.sender, purseTransfer);\n        }\n        _totalReceiptSupply -= xPurseAmount;\n        return true;\n    }\n\n    function handleReceipt(uint256 _purseReward) internal {\n        UserInfo storage user = userInfo[msg.sender];             \n        user.withdrawReward += _purseReward;\n        user.lockTime = block.timestamp;\n        _totalLockedAmount += _purseReward;\n    }\n\n    function updateLockPeriod(uint256 newLockPeriod) external onlyOwner {\n        require(newLockPeriod != lockPeriod, \"Same as Previous Lock Period\");\n        lockPeriod = newLockPeriod;\n    }\n\n    function withdrawLockedAmount() public whenNotPaused returns (bool success){\n        UserInfo storage user = userInfo[msg.sender];\n        uint256 lockDuration = block.timestamp.sub(user.lockTime); \n        require(user.withdrawReward > 0, \"Insufficient Withdrawal Amount\");\n        require(lockDuration >= lockPeriod && user.lockTime != 0, \"Lock Time < Lock Period and/or Lock Time == 0\");\n\n        uint256 purseTransfer = safePurseTransfer(user.withdrawReward);\n        _totalLockedAmount -= user.withdrawReward;\n        user.withdrawReward = 0;\n        user.lockTime = 0;\n\n        emit WithdrawLockedStake(msg.sender, purseTransfer);\n        purseToken.transfer(msg.sender, purseTransfer);\n        return true;\n    }\n\n    function safePurseTransfer(uint256 amount) internal view returns (uint256) {\n        uint256 totalPurse = availablePurseSupply();\n        return amount > totalPurse ? totalPurse : amount;\n    }\n\n    function getTotalPurse(address purseOwner) external view returns (uint256){  \n        uint256 totalXPurse = totalReceiptSupply();\n        uint256 totalPurse = availablePurseSupply();\n        uint256 userReceipt = userReceiptToken(purseOwner);\n        uint256 purseAmount = userReceipt.mul(totalPurse).div(totalXPurse);\n        return purseAmount;\n    }\n\n    function userReceiptToken(address purseOwner) public view returns (uint256) {\n        return userInfo[purseOwner].receiptToken.add(userInfo[purseOwner].newReceiptToken);\n    }\n\n    function totalLockedAmount() public view returns (uint256) {\n        return _totalLockedAmount;\n    }\n\n    function availablePurseSupply() public view returns (uint256) {\n        return purseToken.balanceOf(address(this)).sub(totalLockedAmount());\n    }\n\n    function totalReceiptSupply() public view returns (uint256) {\n        return _totalReceiptSupply;\n    }\n\n    function recoverToken(address tokenAddress, uint256 amount, address recipient) external onlyOwner {\n        require(recipient != address(0), \"Send to Zero Address\");\n        IERC20Upgradeable(tokenAddress).safeTransfer(recipient, amount);\n    }\n    \n    function pause() external whenNotPaused onlyOwner {\n        _pause();\n    }\n\n    function unpause() external whenPaused onlyOwner {\n        _unpause();\n    }\n}",
  "sourcePath": "/Users/yanping/Documents/PurseStaking/contracts/PurseStakingV2.sol",
  "compiler": {
    "name": "solc",
    "version": "0.8.12+commit.f00d7308.Emscripten.clang"
  },
  "schemaVersion": "3.4.5",
  "updatedAt": "2022-06-02T03:08:45.598Z",
  "networkType": "ethereum",
  "devdoc": {
    "kind": "dev",
    "methods": {
      "owner()": {
        "details": "Returns the address of the current owner."
      },
      "paused()": {
        "details": "Returns true if the contract is paused, and false otherwise."
      },
      "proxiableUUID()": {
        "details": "Implementation of the ERC1822 {proxiableUUID} function. This returns the storage slot used by the implementation. It is used to validate that the this implementation remains valid after an upgrade. IMPORTANT: A proxy pointing at a proxiable contract should not be considered proxiable itself, because this risks bricking a proxy that upgrades to it, by delegating to itself until out of gas. Thus it is critical that this function revert if invoked through a proxy. This is guaranteed by the `notDelegated` modifier."
      },
      "renounceOwnership()": {
        "details": "Leaves the contract without owner. It will not be possible to call `onlyOwner` functions anymore. Can only be called by the current owner. NOTE: Renouncing ownership will leave the contract without an owner, thereby removing any functionality that is only available to the owner."
      },
      "transferOwnership(address)": {
        "details": "Transfers ownership of the contract to a new account (`newOwner`). Can only be called by the current owner."
      },
      "upgradeTo(address)": {
        "details": "Upgrade the implementation of the proxy to `newImplementation`. Calls {_authorizeUpgrade}. Emits an {Upgraded} event."
      },
      "upgradeToAndCall(address,bytes)": {
        "details": "Upgrade the implementation of the proxy to `newImplementation`, and subsequently execute the function call encoded in `data`. Calls {_authorizeUpgrade}. Emits an {Upgraded} event."
      }
    },
    "version": 1
  },
  "userdoc": {
    "kind": "user",
    "methods": {},
    "version": 1
  }
}