{
  "_format": "hh-sol-artifact-1",
  "contractName": "RetroactiveRewards",
  "sourceName": "contracts/RetroactiveRewards.sol",
  "abi": [
    {
      "inputs": [
        {
          "internalType": "address",
          "name": "token",
          "type": "address"
        },
        {
          "internalType": "bytes32",
          "name": "_merkleRoot",
          "type": "bytes32"
        }
      ],
      "stateMutability": "nonpayable",
      "type": "constructor"
    },
    {
      "anonymous": false,
      "inputs": [
        {
          "indexed": false,
          "internalType": "address",
          "name": "user",
          "type": "address"
        },
        {
          "indexed": false,
          "internalType": "uint256",
          "name": "amount",
          "type": "uint256"
        }
      ],
      "name": "Claim",
      "type": "event"
    },
    {
      "anonymous": false,
      "inputs": [
        {
          "indexed": true,
          "internalType": "address",
          "name": "previousOwner",
          "type": "address"
        },
        {
          "indexed": true,
          "internalType": "address",
          "name": "newOwner",
          "type": "address"
        }
      ],
      "name": "OwnershipTransferred",
      "type": "event"
    },
    {
      "anonymous": false,
      "inputs": [
        {
          "indexed": false,
          "internalType": "uint128",
          "name": "startTime",
          "type": "uint128"
        },
        {
          "indexed": false,
          "internalType": "uint128",
          "name": "endTime",
          "type": "uint128"
        }
      ],
      "name": "UpdatedClaimPeriod",
      "type": "event"
    },
    {
      "inputs": [
        {
          "internalType": "uint256",
          "name": "amount",
          "type": "uint256"
        },
        {
          "internalType": "bytes32[]",
          "name": "merkleProof",
          "type": "bytes32[]"
        }
      ],
      "name": "claimRewards",
      "outputs": [],
      "stateMutability": "nonpayable",
      "type": "function"
    },
    {
      "inputs": [
        {
          "internalType": "address",
          "name": "",
          "type": "address"
        }
      ],
      "name": "isClaim",
      "outputs": [
        {
          "internalType": "bool",
          "name": "",
          "type": "bool"
        }
      ],
      "stateMutability": "view",
      "type": "function"
    },
    {
      "inputs": [],
      "name": "merkleRoot",
      "outputs": [
        {
          "internalType": "bytes32",
          "name": "",
          "type": "bytes32"
        }
      ],
      "stateMutability": "view",
      "type": "function"
    },
    {
      "inputs": [],
      "name": "owner",
      "outputs": [
        {
          "internalType": "address",
          "name": "",
          "type": "address"
        }
      ],
      "stateMutability": "view",
      "type": "function"
    },
    {
      "inputs": [],
      "name": "purse",
      "outputs": [
        {
          "internalType": "contract IERC20",
          "name": "",
          "type": "address"
        }
      ],
      "stateMutability": "view",
      "type": "function"
    },
    {
      "inputs": [],
      "name": "renounceOwnership",
      "outputs": [],
      "stateMutability": "nonpayable",
      "type": "function"
    },
    {
      "inputs": [
        {
          "internalType": "address",
          "name": "token",
          "type": "address"
        },
        {
          "internalType": "uint256",
          "name": "amount",
          "type": "uint256"
        },
        {
          "internalType": "address",
          "name": "to",
          "type": "address"
        }
      ],
      "name": "returnToken",
      "outputs": [],
      "stateMutability": "nonpayable",
      "type": "function"
    },
    {
      "inputs": [],
      "name": "rewardEndTime",
      "outputs": [
        {
          "internalType": "uint128",
          "name": "",
          "type": "uint128"
        }
      ],
      "stateMutability": "view",
      "type": "function"
    },
    {
      "inputs": [],
      "name": "rewardStartTime",
      "outputs": [
        {
          "internalType": "uint128",
          "name": "",
          "type": "uint128"
        }
      ],
      "stateMutability": "view",
      "type": "function"
    },
    {
      "inputs": [
        {
          "internalType": "address",
          "name": "newOwner",
          "type": "address"
        }
      ],
      "name": "transferOwnership",
      "outputs": [],
      "stateMutability": "nonpayable",
      "type": "function"
    },
    {
      "inputs": [
        {
          "internalType": "uint128",
          "name": "startTime",
          "type": "uint128"
        },
        {
          "internalType": "uint128",
          "name": "endTime",
          "type": "uint128"
        }
      ],
      "name": "updateRewardsPeriod",
      "outputs": [],
      "stateMutability": "nonpayable",
      "type": "function"
    }
  ],
  "bytecode": "0x60c060405234801561001057600080fd5b50604051610f31380380610f3183398101604081905261002f9161009e565b6100383361004e565b6001600160a01b0390911660805260a0526100d8565b600080546001600160a01b038381166001600160a01b0319831681178455604051919092169283917f8be0079c531659141344cd1fd0a4f28419497f9722a3daafe3b4186f6b6457e09190a35050565b600080604083850312156100b157600080fd5b82516001600160a01b03811681146100c857600080fd5b6020939093015192949293505050565b60805160a051610e196101186000396000818160f801526104e10152600081816101cd0152818161074b015281816107ed01526108c00152610e196000f3fe608060405234801561001057600080fd5b50600436106100a95760003560e01c8063715018a611610071578063715018a614610155578063727eed001461015d5780638da5cb5b14610190578063abd40e1e146101b5578063e9cc883d146101c8578063f2fde38b146101ef57600080fd5b80630ad2584d146100ae5780632cc138be146100c35780632eb4a7ab146100f357806337e9f64a1461012857806346efc03614610142575b600080fd5b6100c16100bc366004610bd8565b610202565b005b6001546100d6906001600160801b031681565b6040516001600160801b0390911681526020015b60405180910390f35b61011a7f000000000000000000000000000000000000000000000000000000000000000081565b6040519081526020016100ea565b6001546100d690600160801b90046001600160801b031681565b6100c1610150366004610c2b565b61026d565b6100c1610395565b61018061016b366004610c5e565b60026020526000908152604090205460ff1681565b60405190151581526020016100ea565b6000546001600160a01b03165b6040516001600160a01b0390911681526020016100ea565b6100c16101c3366004610c79565b6103a9565b61019d7f000000000000000000000000000000000000000000000000000000000000000081565b6100c16101fd366004610c5e565b6105a6565b61020a61061f565b6001600160a01b0381166102545760405162461bcd60e51b815260206004820152600c60248201526b5a65726f206164647265737360a01b60448201526064015b60405180910390fd5b6102686001600160a01b0384168284610679565b505050565b61027561061f565b816001600160801b0316816001600160801b0316116102e55760405162461bcd60e51b815260206004820152602660248201527f656e6454696d65206d7573742062652067726561746572207468616e20737461604482015265727454696d6560d01b606482015260840161024b565b42816001600160801b0316116103315760405162461bcd60e51b81526020600482015260116024820152700496e76616c69642074696d657374616d7607c1b604482015260640161024b565b6001600160801b03828116600160801b838316810282811760018190556040805192861690941782529190910490921660208301527f488fd119a95645021259d6fa70a348a383718439dbc752df7ef789ae7cdff202910160405180910390a15050565b61039d61061f565b6103a760006106cb565b565b6001546001600160801b03164210156103f85760405162461bcd60e51b815260206004820152601160248201527010db185a5b481b9bdd081cdd185c9d1959607a1b604482015260640161024b565b600154600160801b90046001600160801b03164211156104485760405162461bcd60e51b815260206004820152600b60248201526a10db185a5b48195b99195960aa1b604482015260640161024b565b3360009081526002602052604090205460ff161561049a5760405162461bcd60e51b815260206004820152600f60248201526e105b1c9958591e4818db185a5b5959608a1b604482015260640161024b565b6040516bffffffffffffffffffffffff193360601b1660208201526034810184905260009060540160405160208183030381529060405280519060200120905061050683837f00000000000000000000000000000000000000000000000000000000000000008461071b565b6105435760405162461bcd60e51b815260206004820152600e60248201526d24b73b30b634b210383937b7b31760911b604482015260640161024b565b33600081815260026020908152604091829020805460ff19166001179055815192835282018690527f47cee97cb7acd717b3c0aa1435d004cd5b3c8c57d70dbceb4e4458bbd60e39d4910160405180910390a16105a03385610733565b50505050565b6105ae61061f565b6001600160a01b0381166106135760405162461bcd60e51b815260206004820152602660248201527f4f776e61626c653a206e6577206f776e657220697320746865207a65726f206160448201526564647265737360d01b606482015260840161024b565b61061c816106cb565b50565b6000546001600160a01b031633146103a75760405162461bcd60e51b815260206004820181905260248201527f4f776e61626c653a2063616c6c6572206973206e6f7420746865206f776e6572604482015260640161024b565b604080516001600160a01b038416602482015260448082018490528251808303909101815260649091019091526020810180516001600160e01b031663a9059cbb60e01b1790526102689084906108ef565b600080546001600160a01b038381166001600160a01b0319831681178455604051919092169283917f8be0079c531659141344cd1fd0a4f28419497f9722a3daafe3b4186f6b6457e09190a35050565b6000826107298686856109c1565b1495945050505050565b6040516370a0823160e01b81523060048201526000907f00000000000000000000000000000000000000000000000000000000000000006001600160a01b0316906370a0823190602401602060405180830381865afa15801561079a573d6000803e3d6000fd5b505050506040513d601f19601f820116820180604052508101906107be9190610cf8565b905080821161085b5760405163a9059cbb60e01b81526001600160a01b038481166004830152602482018490527f0000000000000000000000000000000000000000000000000000000000000000169063a9059cbb906044015b6020604051808303816000875af1158015610837573d6000803e3d6000fd5b505050506040513d601f19601f820116820180604052508101906105a09190610d11565b6000811161089a5760405162461bcd60e51b815260206004820152600c60248201526b5a65726f2062616c616e636560a01b604482015260640161024b565b60405163a9059cbb60e01b81526001600160a01b038481166004830152602482018390527f0000000000000000000000000000000000000000000000000000000000000000169063a9059cbb90604401610818565b6000610944826040518060400160405280602081526020017f5361666545524332303a206c6f772d6c6576656c2063616c6c206661696c6564815250856001600160a01b0316610a0f9092919063ffffffff16565b80519091501561026857808060200190518101906109629190610d11565b6102685760405162461bcd60e51b815260206004820152602a60248201527f5361666545524332303a204552433230206f7065726174696f6e20646964206e6044820152691bdd081cdd58d8d9595960b21b606482015260840161024b565b600081815b84811015610a04576109f0828787848181106109e4576109e4610d33565b90506020020135610a26565b9150806109fc81610d49565b9150506109c6565b5090505b9392505050565b6060610a1e8484600085610a52565b949350505050565b6000818310610a42576000828152602084905260409020610a08565b5060009182526020526040902090565b606082471015610ab35760405162461bcd60e51b815260206004820152602660248201527f416464726573733a20696e73756666696369656e742062616c616e636520666f6044820152651c8818d85b1b60d21b606482015260840161024b565b6001600160a01b0385163b610b0a5760405162461bcd60e51b815260206004820152601d60248201527f416464726573733a2063616c6c20746f206e6f6e2d636f6e7472616374000000604482015260640161024b565b600080866001600160a01b03168587604051610b269190610d94565b60006040518083038185875af1925050503d8060008114610b63576040519150601f19603f3d011682016040523d82523d6000602084013e610b68565b606091505b5091509150610b78828286610b83565b979650505050505050565b60608315610b92575081610a08565b825115610ba25782518084602001fd5b8160405162461bcd60e51b815260040161024b9190610db0565b80356001600160a01b0381168114610bd357600080fd5b919050565b600080600060608486031215610bed57600080fd5b610bf684610bbc565b925060208401359150610c0b60408501610bbc565b90509250925092565b80356001600160801b0381168114610bd357600080fd5b60008060408385031215610c3e57600080fd5b610c4783610c14565b9150610c5560208401610c14565b90509250929050565b600060208284031215610c7057600080fd5b610a0882610bbc565b600080600060408486031215610c8e57600080fd5b83359250602084013567ffffffffffffffff80821115610cad57600080fd5b818601915086601f830112610cc157600080fd5b813581811115610cd057600080fd5b8760208260051b8501011115610ce557600080fd5b6020830194508093505050509250925092565b600060208284031215610d0a57600080fd5b5051919050565b600060208284031215610d2357600080fd5b81518015158114610a0857600080fd5b634e487b7160e01b600052603260045260246000fd5b600060018201610d6957634e487b7160e01b600052601160045260246000fd5b5060010190565b60005b83811015610d8b578181015183820152602001610d73565b50506000910152565b60008251610da6818460208701610d70565b9190910192915050565b6020815260008251806020840152610dcf816040850160208701610d70565b601f01601f1916919091016040019291505056fea264697066735822122015fdbc1b7d0aae9eb448474237f7195f47dd0510d5815c4a5dbe3eda8ff2e64b64736f6c63430008110033",
  "linkReferences": {},
  "deployedLinkReferences": {}
}